:020000040800F2
:1000000000000220B9020008BF020008C302000875
:1000100035030008390300088103000800000000D0
:10002000000000000000000000000000812800081F
:10003000CD030008000000002129000885290008E0
:10004000E5030008E5030008E5030008E5030008F0
:10005000E5030008E5030008E5030008E5030008E0
:10006000E5030008E5030008E5030008E5030008D0
:10007000E5030008E5030008E5030008E5030008C0
:10008000E5030008E5030008E5030008E5030008B0
:10009000E5030008E5030008E5030008E5030008A0
:1000A000E5030008E5030008E5030008E503000890
:1000B000E5030008E5030008E5030008E503000880
:1000C000E5030008E5030008E5030008E503000870
:1000D000E5030008E5030008E5030008E503000860
:1000E000E5030008E5030008E5030008E503000850
:1000F000E5030008E5030008E5030008E503000840
:10010000E5030008E5030008E5030008E50300082F
:10011000E5030008E5030008E5030008E50300081F
:10012000E5030008E5030008E5030008E50300080F
:10013000E5030008E5030008E5030008E5030008FF
:10014000E5030008E5030008E5030008E5030008EF
:10015000E5030008E5030008E5030008E5030008DF
:10016000E5030008E5030008E5030008E5030008CF
:10017000E5030008E5030008E503000800000000AF
:10018000E5030008E503000800B583B001F0FAFBC1
:10019000384B394A1360394A1360394906E052F83E
:1001A000041B43F8041B9842F9D86146354B994229
:1001B00005D20A684B6801F10C0C8868F3E72E4BF6
:1001C0001A68314B9A4200D0FEE72C4B1A682F4B2D
:1001D0009A42F9D1274B2E4A13602E4A13602E4AB9
:1001E00000E002462D4B9A4209D2104650F8083BD7
:1001F00051689942F5D9002243F8042BF9E7244BC2
:100200001B6813B9234B1B6803B1FEE701F06EFCBA
:10021000694601A801F03CF8214C224BE41AA410D5
:10022000002504E01F4B53F8253098470135AC42B8
:10023000F8DC1D4C1D4BE41AA410002504E01B4BF8
:1002400053F8253098470135AC42F8DC0099019805
:1002500001F0F2FF0546164C164BE41AA41004E018
:10026000013C144B53F824309847002CF8DC284606
:1002700000F0AAFFBABADECA00000020A8000020E1
:10028000E8030008000400087856341232547698C7
:10029000B0000020183201200004000810040008FB
:1002A00010040008100400081004000810040008DE
:1002B000100400081004000808B5FFF765FF00BE31
:1002C000FEE71EF0040F0CBFEFF30880EFF3098088
:1002D0007146414A10472DE9F04182B004460D466F
:1002E000124B5F6BD3F838809E6A1B6B13F0020FC2
:1002F00003D00E4BDB6A002B0BDB0D4801F01CFA20
:10030000009543463A463146204601F051FA00BE78
:10031000FEE74BF6AB6101F0C5FA0028EDD0034BC8
:100320004FF00042DA6202B0BDE8F08100ED00E07B
:100330000468000800BEFEE71EF0040F0CBFEFF3D8
:100340000880EFF309807146244A10472DE9F041F7
:1003500082B004460D46084B5F6BD3F838809E6A26
:10036000064801F0E9F9009543463A4631462046F1
:1003700001F01EFA00BEFEE700ED00E01468000880
:100380001EF0040F0CBFEFF30880EFF309807146F5
:10039000134A10472DE9F04182B004460D46084B40
:1003A0005F6BD3F838809E6A064801F0C5F9009566
:1003B00043463A463146204601F0FAF900BEFEE7D0
:1003C00000ED00E02068000800BEFEE700BEFEE78A
:1003D00000BEFEE770470000D70200084D0300088A
:0803E0009503000800BEFEE7D2
:1003E800146E000800000020AC000020146E000805
:1003F8000000001000000010B00000201C32012096
:080408000000001000000010CC
:1004100010B504460E4B1A784FF47A73B3FBF2F31F
:100420000C4A1068B0FBF3F000F0AEF868B90F2C7E
:1004300001D901200AE0002221464FF0FF3000F0F0
:100440007FF8054B1C60002000E0012010BD00BFBC
:10045000040000200C0000200800002008B50B4B11
:100460001A6842F400721A601A6842F480621A60D4
:100470001A6842F480721A60032000F043F80F20DB
:10048000FFF7C6FF02F092F8002008BD003C0240D2
:10049000014B1868704700BFB4000020002808DB3B
:1004A0000901C9B200F1604000F5614080F8001315
:1004B000704700F00F000901C9B2014B1954704791
:1004C00014ED00E000B500F00700C0F1070CBCF12E
:1004D000040F28BF4FF0040C031D062B0FD9C31EB9
:1004E0004FF0FF3E0EFA0CF021EA000199400EFA9F
:1004F00003FE22EA0E0241EA02005DF804FB00233B
:10050000EEE7000010B50446C31E042B0FD80A4ABC
:10051000D36823F4E0631B041B0C240204F4E0649E
:10052000234343F0BF6343F40033D36010BD9221F3
:10053000024801F0E3FAEAE700ED00E0FC6500089C
:1005400070B506460C4615460F2A0ED80F2C11D84A
:100550000B4BD8682A462146C0F30220FFF7B2FFB2
:1005600001463046FFF79AFF70BDAA21054801F009
:10057000C5FAEBE7AB21034801F0C0FAE8E700BF9A
:1005800000ED00E0FC6500080138B0F1807F0BD27F
:100590004FF0E0235861054AF02182F82310002033
:1005A000986107221A6170470120704700ED00E052
:1005B00008B5042807D068B94FF0E022136923F08A
:1005C0000403136108BD4FF0E022136943F00403F4
:1005D0001361F7E740F2C911014801F08FFAEBE728
:1005E000FC6500082DE9F04383B007460E46A54B95
:1005F000984223D003F5806398421FD003F58063AF
:1006000098421BD003F58063984217D003F58063AE
:10061000984213D003F5806398420FD003F58063AE
:1006200098420BD003F58063984207D003F58063AE
:10063000984203D0B321944801F060FA33689AB22B
:1006400012B1B3F5803F03D3B4218F4801F056FABD
:1006500073688E4A93421ED00ED8A2F58012934240
:1006600019D005D8032B16D9113B012B13D90EE055
:10067000874A93420FD00AE0864A93420BD002F594
:100680008032934207D0A2F58012934203D0B52165
:100690007D4801F033FAB368022B01D8002448E00A
:1006A000B621794801F02AFAF8E7C821764801F026
:1006B00025FA54E00F2B7CD0E021734801F01EFA9C
:1006C00077E0072300E000238B40034302327249A6
:1006D00041F82230714B1A686FEA080322EA0801D8
:1006E000706810F4803F01D048EA02016B4A116043
:1006F000526803EA0201706810F4003F01D048EA32
:100700000201664A5160926803EA0201706810F4BF
:10071000801F01D048EA0201604A9160D26813400C
:10072000716811F4001F01D048EA02035B4AD360EC
:1007300001340F2C00F2A2800125A540336803EAA2
:10074000050835EA0303F3D173685A1E012A03D959
:10075000112B01D0122B15D1F368032BA5D8BA6841
:10076000610003238B4022EA0302F3688B401343AA
:10077000BB607A6822EA05027368C3F30013A340E2
:1007800013437B60FA6865000323AB406FEA0309FB
:1007900022EA0302B368AB401343FB607368022B89
:1007A00001D0122B15D133691BB10D2B82D8002B30
:1007B00082D0E208083257F8220004F007018900CD
:1007C0000F238B4020EA030033698B40034347F833
:1007D00022303B6809EA0309736803F00303AB4066
:1007E00043EA09033B60736813F0805FA0D00023E5
:1007F00001932B4B5A6C42F480425A645B6C03F4B5
:1008000080430193019BA208911C234B53F82100C4
:1008100004F0030189000F238B4020EA0300194BE9
:100820009F423FF450AF03F580639F421AD003F517
:1008300080639F4218D003F580639F4216D003F572
:1008400080639F4214D003F580639F4212D003F56A
:1008500080639F4210D003F580639F423FF431AF25
:10086000082331E701232FE702232DE703232BE79A
:10087000042329E7052327E7062325E703B0BDE87E
:10088000F08300BF00000240306600080000211025
:10089000000012100000311000380140003C0140FF
:1008A00000380240002800F0588270B582B004463B
:1008B00003680F2B39D8236813F0010F4DD06368FC
:1008C0002BB1B3F5803F02D0B3F5A02F32D1804BCE
:1008D0009B6803F00C03042B36D07D4B9B6803F020
:1008E0000C03082B2BD06368B3F5803F5FD0B3F5C2
:1008F000A02F62D0764B1A6822F480321A601A68F0
:1009000022F480221A606368002B60D0FFF7C0FDDC
:1009100005466F4B1B6813F4003F1ED1FFF7B8FD6F
:10092000401B6428F5D903201EE2E821694801F044
:10093000E5F8C0E7ED21674801F0E0F8C7E7644B50
:100940005B6813F4800FCED0614B1B6813F4003F3B
:1009500003D06368002B00F00282236813F0020FBB
:1009600066D0E368012B41D823691F2B44D8584B2C
:100970009B6813F00C0F4AD0554B9B6803F00C0397
:10098000082B3FD0E368002B77D0534B01221A602D
:10099000FFF77EFD05464E4B1B6813F0020F63D137
:1009A000FFF776FD401B0228F5D90320DCE1484A19
:1009B000136843F480331360A5E7454B1A6842F48B
:1009C00080221A601A6842F480321A609BE7FFF7AF
:1009D0005FFD05463E4B1B6813F4003FBDD0FFF79B
:1009E00057FD401B6428F5D90320BDE140F21F11DB
:1009F000384801F083F8B7E74FF49071354801F0BB
:100A00007DF8B4E7324B5B6813F4800FBAD1304BFA
:100A10001B6813F0020F03D0E368012B40F0A181A3
:100A20002B4A136823F0F803216943EAC1031360DA
:100A3000236813F0080F51D06369012B2FD8636925
:100A40009BB3254B0122C3F8802EFFF721FD0546FD
:100A50001F4B5B6F13F0020F40D1FFF719FD401BD6
:100A60000228F5D903207FE1194A136823F0F8031F
:100A7000216943EAC1031360DAE7174B00221A60C9
:100A8000FFF706FD0546124B1B6813F0020FCFD08F
:100A9000FFF7FEFC401B0228F5D9032064E14FF468
:100AA000B0710C4801F02AF8C9E70B4B0022C3F8DB
:100AB000802EFFF7EDFC0546054B5B6F13F0020F30
:100AC0000CD0FFF7E5FC401B0228F5D903204BE1D1
:100AD000003802406066000800004742236813F0B7
:100AE000040F7CD0A368012B01D9052B38D1A44B6E
:100AF0001B6C13F0805F39D100230193A04B1A6C5B
:100B000042F080521A641B6C03F080530193019BE6
:100B100001259C4B1B6813F4807F29D0A368012B0F
:100B20003AD0052B3ED0964B1A6F22F001021A677D
:100B30001A6F22F004021A67A368002B3CD0FFF75B
:100B4000A7FC06468E4B1B6F13F0020F45D1FFF733
:100B50009FFC801B41F288339842F3D9032003E1C4
:100B60004FF4C671884800F0C9FFC0E70025D0E700
:100B7000844A136843F480731360FFF789FC0646C8
:100B8000804B1B6813F4807FC8D1FFF781FC801B6A
:100B90000228F5D90320E7E0794A136F43F00103F7
:100BA0001367C9E7764B1A6F42F004021A671A6F8F
:100BB00042F001021A67BFE7FFF76AFC0646704B76
:100BC0001B6F13F0020F08D0FFF762FC801B41F28D
:100BD00088339842F3D90320C6E0002D3BD1A369A6
:100BE000022B3ED8A369002B00F0BD80644A9268B6
:100BF00002F00C02082A00F09080022B79D1E36900
:100C000013B1B3F5800F32D1236A3F2B35D8636A15
:100C1000323BB3F5BF7F36D8A26A082A39D84FF4E1
:100C2000AA73D34013F0010F33D0E36A023B0D2BBC
:100C300035D8564B00221A66FFF72AFC0546504B62
:100C40001B6813F0007F30D0FFF722FC401B022806
:100C5000F5D9032088E04A4A136C23F080531364CB
:100C6000BDE740F2CF11484800F048FFBAE74FF423
:100C7000EC71454800F042FFC6E740F2D911424806
:100C800000F03CFFC3E74FF4ED713F4800F036FF42
:100C9000C2E740F2DB113C4800F030FFC5E74FF4FB
:100CA000EE71394800F02AFFC3E7E369226A134373
:100CB000626A43EA8213A26A5208013A43EA024393
:100CC000E26A43EA02632E4A5360304B01221A66FD
:100CD000FFF7DEFB04462A4B1B6813F0007F06D1AA
:100CE000FFF7D6FB001B0228F5D903203CE00020CB
:100CF0003AE0264B00221A66FFF7CAFB0446204B57
:100D00001B6813F0007F06D0FFF7C2FB001B022810
:100D1000F5D9032028E0002026E0012B26D0184B2F
:100D20005B6803F48001E269914221D103F03F0244
:100D3000216A8A421ED1616A47F6C0721A408A420D
:100D40001AD103F44032A16A8A4217D103F07063CA
:100D5000E26A93421CD1002006E001207047012086
:100D600002E0012000E0002002B070BD0120FBE79E
:100D70000120F9E70120F7E70120F5E70120F3E77B
:100D800000380240007000406066000800004742E2
:100D90000120E9E708B5334B9B6803F00C03042BF3
:100DA0005BD0082B5BD12F4B5A6802F03F025B6887
:100DB00013F4800F2CD02B4B5868C0F388104FEAE7
:100DC000401CBCEB000C6EEB0E0E4FEA8E1343EA98
:100DD0009C634FEA8C11B1EB0C0163EB0E03DB005B
:100DE00043EA5173C90011EB000C43F100035902AF
:100DF00000234FEA4C2041EADC5103F073FD194B0C
:100E00005B68C3F3014301335B00B0FBF3F008BD43
:100E1000144B5868C0F388104FEA401CBCEB000C20
:100E20006EEB0E0E4FEA8E1343EA9C634FEA8C1171
:100E3000B1EB0C0163EB0E03DB0043EA5173C90015
:100E400011EB000C43F10003990200234FEA8C20C0
:100E500041EA9C5103F046FDD1E70348D7E7034838
:100E6000D5E700BF0038024000127A000024F400E9
:100E7000002800F0FA8070B50D4604460368013B77
:100E80000E2B32D8072D36D87C4B1B6803F00F038E
:100E9000AB4208D2EBB2794A1370136803F00F0328
:100EA000AB4240F0E480236813F0020F3ED013F011
:100EB000040F04D0724A936843F4E05393602368AC
:100EC00013F0080F04D06E4A936843F460439360B4
:100ED000A36823B3C02B22D016D8A02B1FD010D8C4
:100EE000802B1CD0902B1AD014E040F25121654881
:100EF00000F004FEC6E740F25221624800F0FEFD19
:100F0000C2E7B02B0BD005E0E02B08D0F02B06D0C9
:100F1000D02B04D040F275215A4800F0EFFD584A1A
:100F2000936823F0F003A1680B439360236813F0E8
:100F3000010F3CD06368032B25D86368012B28D0B0
:100F40009A1E012A2CD94E4A126812F0020F00F0A4
:100F500090804B498A6822F0030213438B60FFF7AD
:100F600097FA0646464B9B6803F00C036268B3EBA6
:100F7000820F1CD0FFF78CFA801B41F28833984215
:100F8000F0D9032064E04FF41F713E4800F0B6FD35
:100F9000D3E73B4A126812F4003FDAD1012057E050
:100FA000374A126812F0007FD3D1012050E0334B52
:100FB0001B6803F00F03AB4207D9EAB22F4B1A703C
:100FC0001B6803F00F03AB4255D1236813F0040FE5
:100FD00014D0E3685BB1B3F5805F08D0B3F5A05FD0
:100FE00005D0B3F5C05F02D0B3F5E05F31D1244A3C
:100FF000936823F4E053E1680B439360236813F094
:10100000080F15D023695BB1B3F5805F08D0B3F545
:10101000A05F05D0B3F5C05F02D0B3F5E05F1ED18D
:10102000174A936823F46043216943EAC10393603C
:10103000FFF7B0FE124B9B68C3F30313124AD35C55
:10104000D840124B1860124B1868FFF7E1F90020E6
:1010500070BD40F2BA210B4800F050FDC7E740F2E6
:10106000C121084800F04AFDDAE70120704701205D
:10107000EEE70120ECE70120EAE700BF003C024078
:101080000038024060660008C46B00080C000020B5
:1010900008000020014B1868704700BF0C000020BA
:1010A00000B583B08C46194652B11446064B0194E4
:1010B000009363460246054800F03EFB00F00AF844
:1010C000034B1C46F3E700BF90660008A0660008CB
:1010D0005C68000808B5034800F048FB012000F0F8
:1010E00073F800BFD066000808B503460C4A1268C2
:1010F0005AB10B4A1068033323F003030344094A2F
:10110000934206D8064A136008BD054A0649116095
:10111000EFE704F0B3FB0C2303604FF0FF30F3E77D
:10112000B800002000FC01201C3201200020132800
:1011300007DC074B53F83030B3F1FF3F01D00130EB
:10114000F5E7142800D070474FF0FF30FBE700BFF1
:101150004001002030B51324002520462946ABBEAF
:101160000446204630BD38B5044604F087FB0546EA
:10117000FFF7F0FF2860204638BDB0F1FF3F00D0F8
:10118000704708B5FFF7EFFF08BD000010B5044633
:101190000B4B186808B143685BB1132C0CD8094B92
:1011A00053F83430B3F1FF3F08D0064800EBC400D9
:1011B00010BD03F089FFF0E70020F9E70020F7E712
:1011C000580000204001002000B530B9044D18241B
:1011D00020462946ABBE0446FEE7024DF7E700BFB6
:1011E00026000200230002002DE9F04184B0234FC5
:1011F00001970326039600230293012401AD2046A4
:101200002946ABBE80461E4BC3F80080019703966B
:101210000423029320462946ABBE8046194BC3F8EF
:101220000080019703960823029320462946ABBE0F
:101230000446154B1C60B4F1FF3F01D000230AE0C7
:10124000104B1A68104B1A60F8E7104A4FF0FF3144
:1012500042F833100133132BF7DD0C4B084A1268A8
:101260001A6000225A60074909689960DA600649E5
:10127000096819615A6104B0BDE8F081E4660008AC
:101280003C010020380100203401002040010020F2
:101290002DE9F04383B0814688462A4B00934F23C3
:1012A000019315276C4638462146ABBE0746AFBBB7
:1012B000244B002283F84F20009A3E463C463D4690
:1012C00007E001321E46204B43F82520013501245A
:1012D000013292F90030FBB164B91C49C9560029AA
:1012E000F6DB092BF4D0082D16DC222BE9D0272BB6
:1012F000E9D1E6E736B19E42EAD1002313703E46BB
:101300003C46E5E71149C956002901DB092BDFD12D
:10131000002313703446DBE73DB900E00025094B9C
:1013200000221A70084A13600135074B002243F867
:101330002520C9F80050C8F80030FFF755FF03B06A
:10134000BDE8F083E4000020BC000020946C00089D
:1013500030B585B0019002910392062401AD20467C
:101360002946ABBE04462046FFF707FF05B030BD57
:1013700070B50D461446FFF709FF68B106462246D0
:1013800029460068FFF7E4FFB0F1FF3F03D0736820
:10139000201A0344736070BD04F070FA09230360DF
:1013A0004FF0FF30F7E7F0B583B00C461546FFF776
:1013B000EDFEC0B10646022D1CD8012D21D0022D14
:1013C00029D03368009301940A256F462846394690
:1013D000ABBE05462846FFF7D0FE00282BDB746025
:1013E000204603B0F0BD04F049FA092303604FF032
:1013F000FF30F6E704F042FA162303604FF0FF30A7
:10140000EFE74368E418DCD504F038FA16230360EC
:101410004FF0FF30E5E7036800930C256F46284640
:101420003946ABBE05462846FFF7A7FEB0F1FF3FA1
:10143000D7D00444C5E74FF0FF30D2E708B5FFF737
:10144000B2FF08BD30B585B001900291039205242A
:1014500001AD20462946ABBE04462046FFF78DFE6F
:1014600005B030BD70B50D461446FFF78FFE70B164
:101470000646224629460068FFF7E4FF031E11DBFB
:101480007268E01A024472609C4207D070BD04F09A
:10149000F5F9092303604FF0FF30F7E70020FFF76D
:1014A00062FEF3E74FF0FF30F0E730B583B0019014
:1014B000022401AD20462946ABBE04462046FFF774
:1014C0005CFE03B030BD000038B50446FFF75EFE99
:1014D00080B10546601E012804D80C4B9A681B6930
:1014E0009A420ED02868FFF7E0FF10B94FF0FF33A3
:1014F0002B6038BD04F0C2F9092303604FF0FF30C0
:10150000F7E74FF0FF332B600020F2E740010020A7
:1015100070B50C46FFF73AFEA8B10646636843F47F
:10152000005363604FF48063A3640C252846314662
:10153000ABBE05462846FFF720FEB0F1FF3F01D0C5
:101540002061002070BD04F099F9092303604FF079
:10155000FF30F7E738B505460C46582200212046F3
:1015600004F0FDF821462846FFF7D2FF38BD38B514
:1015700005460C4658220021204604F0F0F80021D0
:10158000284600F06BF80546B0F1FF3F0CD06368C9
:1015900043F4014363602146FFF7BAFF044628463F
:1015A000FFF792FF204638BD0446FBE7F0B59BB03D
:1015B00007460C46FFF7BAFD0546B0F1FF3F32D0B3
:1015C00004F42063B3F5206F32D014F4803600D0D9
:1015D000012614F0020F01D046F0020640F201632A
:1015E0001C4201D046F0040614F0080F03D026F088
:1015F000040646F008061797384604F061F919907A
:101600001896012417AE20463146ABBE0446002C86
:101610001CDB114B43F8354003EBC50300225A6035
:1016200028461BB0F0BD04F029F918230360F7E742
:1016300069463846FFF79BFFB0F1FF3FC5D004F085
:101640001DF9112303604FF0FF35E9E72046FFF74E
:101650008AFD0546E4E700BF400100200EB400B556
:101660000199FFF7A3FF5DF804EB03B07047F0B5F5
:101670000C4650B106460027112528463946ABBE18
:101680000546EB1735607360B76014B10023236023
:1016900063600020F0BD38B5FFF778FD80B10546E6
:1016A000092420462946ABBE04462046012C06D01C
:1016B00004F0E4F80446FFF74DFD2060002038BD3B
:1016C00004F0DCF8092303600020F8E72DE9F0437B
:1016D00085B004460F4643563BBB042528462146A9
:1016E000ABBE0546384605B0BDE8F08314F901CB22
:1016F00003F110026A4402F810CC0133AB42F5D377
:1017000010336B44002203F8102C4FF00408E94614
:1017100040464946ABBE8046761B002EE2D0354699
:10172000102E28BF10250023E8E70E46F5E708B580
:10173000FFF7CCFF08BD00000FB400B583B004ABC9
:1017400053F8042B01938021074803F0CFFE0028B3
:1017500004DC03B05DF804EB04B0704701460248B6
:10176000FFF7E5FFF5E700BFE401002010B50446F0
:1017700004F0A6F801462046FFF7D9FF01210248F0
:10178000FFF7D5FF10BD00BF80670008BFF34F8F84
:101790000549CA6802F4E062044B1343CB60BFF30F
:1017A0004F8F00BFFDE700BF00ED00E00400FA0529
:1017B000F8B504460D4617461E462748FFF7BCFFFE
:1017C00021682648FFF7B8FF61682548FFF7B4FF96
:1017D000A1682448FFF7B0FFE1682348FFF7ACFF9A
:1017E00021692248FFF7A8FF61692148FFF7A4FF9C
:1017F000A1692048FFF7A0FFE1691F48FFF79CFFA0
:101800001E48FFF799FF29461D48FFF795FF1D4C1D
:10181000E16A1D48FFF790FF216B1C48FFF78CFF22
:10182000E16B1B48FFF788FF15F0800F0AD115F414
:10183000004F0CD11748FFF77FFF06991648FFF7B6
:101840007BFFF8BD39461548FFF776FFEFE73146D5
:101850001348FFF771FFEDE7E8660008F866000837
:10186000086700081867000828670008386700083C
:10187000486700085867000868670008786700082C
:101880008467000800ED00E094670008A467000882
:10189000B4670008E4670008EC670008C467000844
:1018A000D467000838B583691B888B4201D00020BB
:1018B00038BD044603684568013B302B5ED8DFE83D
:1018C00003F03B211C1C5330332D19195D191919D4
:1018D00019193619245D19275D395D5D5D5D5D5D02
:1018E0005D5D5D5D5D5D5D5D5D5D5D5D5D5D5D5D28
:1018F0005D1919004FF0FF330360A3690233A36140
:101900000120D5E700230360F7E700230360F4E735
:1019100000232B606B60AB60EB60EEE7002303609D
:10192000EBE7AB680360E8E700230360E5E700232B
:101930000360E2E7FFF72AFF1149286803F0A8FFD8
:1019400040B96B6813B901232360D6E7042B05D097
:10195000082B06D04FF0FF332360CEE7022323602D
:10196000CBE703232360C8E72B68023B012B02D996
:10197000AB680360C1E700230360BEE7002097E780
:10198000E466000808B500F009F8024A024B9A60C4
:1019900008BD00BF0000000800ED00E0024B4FF062
:1019A00000629A60704700BF00ED00E0224B9B6828
:1019B00003F00C03042B11D0082B13D0002B37D1CC
:1019C0001E4B1F4A1A601C4B9B68C3F303131D4A2E
:1019D000D15C1A4A1368CB4013607047174B1A4A00
:1019E0001A60F0E7144B59685A6802F03F0211F48C
:1019F000800F13D0144BB3FBF2F30F4A5268C2F3BB
:101A0000881202FB03F30C4A5268C2F3014201320E
:101A10005200B3FBF2F3094A1360D4E7084BB3FB5F
:101A2000F2F3054A5268C2F3881202FB03F3EAE7B5
:101A3000024B034A1A60C6E7003802400C0000203F
:101A40000024F400C46B000800127A0030B595B091
:101A500000240194224B1A6C42F080521A641B6CD1
:101A600003F080530193019B02941E4B1A6842F4C9
:101A700080421A601B6803F480430293029B012397
:101A800008934FF4803309934FF480030F93082396
:101A900010934FF4A8731193022512950723139303
:101AA0000E9508A8FEF7FEFE0F23039304950594F8
:101AB0004FF4A05306934FF480530793052103A8D6
:101AC000FFF7D6F9FFF7E6FA074BA3FB00308009D2
:101AD000FEF75AFD0420FEF76BFD15B030BD00BFC8
:101AE0000038024000700040D34D621008B5FEF788
:101AF000B5FCFFF7ABFFFFF759FF08BD08B50A4675
:101B000001460248FFF718FEFEE700BF30680008F4
:101B100001604260012101FA02F2826003737047A2
:101B2000037B5BB1436803F11001036803F5801385
:101B300080339B0201228A409A617047036803F553
:101B4000801380339B0282689A617047037B3BB1AC
:101B5000036803F5801380339B0282689A617047A3
:101B6000436803F11001036803F5801380339B027F
:101B700001228A409A61704710B586B004460D482C
:101B8000026B2168012303FA01F10A430263A26890
:101B900001920293022204920393206800F58010C0
:101BA000803001A98002FEF71DFD2046FFF7CEFF21
:101BB00006B010BD0038024084B00DF1100C0CE9E5
:101BC0000F009DF80C305BB100F5801380339B0251
:101BD0001A69029B1A420CBF0120002004B0704712
:101BE000009B03F5801380339B021A69029B1A4203
:101BF00014BF01200020F1E708B50848FFF7B6FD43
:101C0000074B0FCBFFF7D8FF18B10548FFF79EFF32
:101C100008BD0348FFF784FFFAE700BF60680008CB
:101C2000EC02002008B50348FFF7A0FD0248FFF7CB
:101C300077FF08BD88680008FC02002008B5002373
:101C40001A4619460248006801F0C7F808BD00BFEF
:101C50009C02002008B500231A4619460248006875
:101C600001F0BBF808BD00BFA002002008B50023AA
:101C70001A4619460248006801F0AFF808BD00BFD7
:101C8000A402002008B500231A461946024800683D
:101C900001F0A3F808BD00BFA802002008B502F0BB
:101CA000D9FF064B1A68064B1B689B1A013390FB41
:101CB000F3F103FB1100104408BD00BF70020020C7
:101CC0007402002070B590B025E0224A13680133F9
:101CD0001360214A136801331360204D2C68204E95
:101CE000204602F05BFBD6E9002302F00BFAC6E9BE
:101CF00000014FF47A7303FB04F21A4BA3FB023288
:101D000000230093920904211748006802F088F824
:101D1000FFF7C4FF286000234FF0FF321946134835
:101D2000006801F084F901F059FC0346104A3221A1
:101D300003A803F039FB00231A4603A90D480068E5
:101D400001F04BF80128C0D10B4A1368013313602E
:101D5000BFE700BF8402002064020020C802002008
:101D6000C0020020D34D6210D8020020A002002043
:101D7000AC680008AC0200209002002070B590B062
:101D800025E0224A136801331360214A13680133A6
:101D90001360204D2C68204E204602F0FFFAD6E951
:101DA000002302F0AFF9C6E900014FF47A7303FB98
:101DB00004F21A4BA3FB0232002300939209042180
:101DC0001748006802F02CF8FFF768FF286000232E
:101DD0004FF0FF3219461348006801F028F901F06E
:101DE000FDFB0346104A322103A803F0DDFA00236D
:101DF0001A4603A90D48006800F0EFFF0128C0D182
:101E00000B4A136801331360BFE700BF880200204C
:101E100068020020CC020020B8020020D34D6210DE
:101E2000DC020020A4020020AC680008AC02002004
:101E30009402002070B590B025E0224A1368013367
:101E40001360214A136801331360204D2C68204E23
:101E5000204602F0A3FAD6E9002302F053F9C6E9BE
:101E600000014FF47A7303FB04F21A4BA3FB023216
:101E700000230093920904211748006801F0D0FF65
:101E8000FFF70CFF286000234FF0FF32194613487C
:101E9000006801F0CCF801F0A1FB0346104A3221A2
:101EA00003A803F081FA00231A4603A90D4800682D
:101EB00000F093FF0128C0D10B4A1368013313606F
:101EC000BFE700BF8C0200206C020020D00200207F
:101ED000B0020020D34D6210E0020020A8020020D2
:101EE000AC680008AC020020980200202DE9F04FF9
:101EF00095B0924B1B68B3F1FF3F00F0F880052BC3
:101F000000F312818E4E33688E4F39680F93109113
:101F100003EB0109DFF89C82D8F800A009EB0A0264
:101F2000894C11922260DFF890B2DBF80090874B69
:101F30001D68129509EB0503854A10681390034448
:101F4000844D2B60844B186802F028FA02460B4639
:101F50008249D1E9000102F0B5FB02F09BFC044686
:101F60007F4B186802F01AFA02460B467D49D1E908
:101F7000000102F0A7FB02F08DFC0C907A4B186870
:101F800002F00CFA02460B467849D1E9000102F052
:101F900099FB02F07FFC0D940C9BE3180E90034418
:101FA000734C84FB0324A4EBE37413980AEB000343
:101FB000C8F80030109912980B183B600F9800EB8E
:101FC0000903336011996B4803F07EF929686A4868
:101FD00003F07AF9694803F0DFF9DFF8F4A131681A
:101FE000504603F071F9DFF8EC91DBF80010484639
:101FF00003F06AF9624803F0CFF93968504603F0FC
:1020000063F9524B1968484603F05EF95D4803F0E6
:10201000C3F9D8F80010504603F056F94C4A11683D
:10202000484603F051F92146574803F04DF90D9900
:10203000564803F049F90C99554803F045F90E99B3
:10204000544803F041F9DFF8F490DFF880A10E98CE
:102050000A900C9809900D99089107943C4A1368CE
:102060000693D8F800300593384B1B6804933B68FF
:102070000393DBF800300293336801932B680093DD
:10208000314C2368D9F800204349DAF8000003F006
:102090008FF8DAF8000002F025FFD9F8003001339C
:1020A000C9F800303D4A52F823103D4A11603D4ABC
:1020B00052F823203C4B1A6000213C4B186800F07A
:1020C00015FE0023204A1360224A1360384A136029
:1020D0001B4A13601B4A1360364A1360364A13606A
:1020E0001A4A13601A4A136015B0BDE8F08F304ADF
:1020F000002111600133114A1360284A52F823105D
:10210000274A1160274A52F82320274B1A60FFF70D
:10211000C5FD2A4B1860FFF7C1FD294B1860FFF77A
:10212000BDFD284B1860C7E7274803F035F9274B5A
:10213000186802F023FE002002F04CFD1000002081
:1021400098020020940200207802002088020020DB
:10215000840200207C0200206C020020B0020020DB
:1021600068020020B802002064020020C0020020A3
:1021700056555555B8680008D8680008F468000836
:102180006069000888690008AC690008C069000837
:10219000D4690008E8690008FC6900081400002000
:1021A000740200202C00002070020020AC020020ED
:1021B00080020020900200208C020020D00200202B
:1021C000CC020020C8020020246A00082C03002052
:1021D0001C6900084069000800B58FB000234FF06B
:1021E000FF3219460F48006800F021FF00230E4A15
:1021F000126801A90D48006800F019FF012807D0F6
:102200000B4B1B68B3F57A7FE8DBFFF76FFEE5E762
:10221000074A13680133136001A9064803F054F814
:10222000EEE700BF9C02002044000020AC0200202A
:1022300080020020306A00082DE9F04F87B0A948DD
:10224000FFF77AFA002003F093FA02F0D5FC00229F
:1022500032210A2000F09DFDA34B1860A34B1B68A0
:10226000B3F1FF3F00F0138103220021012000F0B1
:1022700090FD9F4B186003220021012000F089FD92
:102280009C4B186003220021012000F082FD9A4B34
:10229000186003220021012000F07BFD974B18609D
:1022A000002401940125009523464FF4FA629449D5
:1022B000944801F019F90194009523464FF4FA620D
:1022C0009149924801F010F901944FF00209CDF8BC
:1022D000009023464FF4FA628D498E4801F004F9CC
:1022E00001940326009623464FF4FA628A498B48EC
:1022F00001F0FAF88A4B19684FF47A7707FB01F17D
:10230000DFF87C82A8FB0131864B00932B462A46DE
:102310008909854801F06AFDDFF868B2CBF8000052
:10232000824B196807FB01F1A8FB0131804B009338
:102330004B462A4689097F4801F058FDDFF848A23C
:10234000CAF800007C4B196807FB01F1A8FB01816A
:102350007A4B009333462A468909794801F046FDB5
:10236000DFF82892C9F80000764B009304232A4630
:102370006421754801F03AFDDFF81482C8F80000C6
:10238000724B0093234622464FF4FA61704801F0E5
:102390002DFD704B1860704B00932B462A46394632
:1023A0006E4801F023FD6E4F3860DBF800B001F09D
:1023B00015F90246009423462946584601F030FD9F
:1023C000DAF800A001F00AF90246009423462946F3
:1023D000504601F025FDD9F8009001F0FFF80246C3
:1023E000009423462946484601F01AFDD8F800809B
:1023F00001F0F4F80246009423462946404601F0D5
:102400000FFD544BD3F8008001F0E8F80246009429
:1024100023462946404601F003FD3F6801F0DEF8FF
:102420000246009423462946384601F0F9FC4D4FF8
:1024300002AD23460C2231462846FFF769FB95E89A
:102440000F0087E80F0023460D2231462846FFF78C
:102450005FFB07F1100C95E80F008CE80F00234696
:102460000E2231462846FFF753FB07F1200C95E872
:102470000F008CE80F0023460F2231462846FFF755
:1024800047FB303795E80F0087E80F0008E0FFF7BB
:102490002DFDE9E6334800EB0410FFF76DFB013436
:1024A000032CF7DD3049314802F07AFE0346304A0A
:1024B000106088B18F2201212E4802F0F7FE2C4BCC
:1024C000186802F00FFD01F03FF82B48FFF734F9D0
:1024D000002007B0BDE8F08F284802F05DFF4FF004
:1024E000FF30F6E7486A0008AC0200201000002028
:1024F000A8020020A4020020A00200209C020020CC
:102500005C6A0008351E0008646A00087D1D00082A
:102510006C6A0008C51C0008746A0008D92100080C
:10252000D0020020851C0008806A0008CC02002030
:102530006D1C00088C6A0008C8020020551C0008A9
:10254000986A00083D1C0008A46A0008251C0008C1
:10255000B06A0008E8020020F91B0008B86A000809
:10256000E4020020EC020020C06A0008C46A0008EF
:102570002C030020006B0008906B0008D86A00084C
:10258000D34D6210E0020020DC020020D8020020BF
:10259000D4020020FEE7FEE700B583B000F02AF980
:1025A0000190019B03B05DF804FB70477047000089
:1025B000124A12F0070F1ED0D11D21F00701C1F5FC
:1025C000963313440A460E480260002141601344CA
:1025D000083B23F007030B48036059601960991A00
:1025E00051601360084B1960084B1960084B4FF09D
:1025F00000421A6070474FF49633E4E74803002026
:10260000400300203C030020340300203803002056
:1026100030030020164B1A461B688342FBD35168D7
:1026200002EB010C844509D0416800EB010C6345C5
:1026300009D00360904219D010607047406801448F
:1026400051601046F0E710B40A4C2468A3420BD046
:102650005B681944416013681B680360904200D0B6
:1026600010605DF8044B70470460F7E7704700BFE7
:10267000400300203C03002038B5044600F0A6FFCC
:102680003B4B1B68ABB13B4B1B681C4214D1002C6D
:1026900066D004F1080214F0070F02D022F00702FE
:1026A0000832D2B1344B1B6893421AD333490C68B9
:1026B0001DE0FFF77DFFE6E701F02AF80025FFF7B0
:1026C00069FF15F0070F51D04FF0500383F31188C5
:1026D000BFF36F8FBFF34F8FFEE701F019F80025AE
:1026E000EDE701F015F80025E9E721461C4663688F
:1026F000934202D22368002BF7D11D4B1B68A342E3
:1027000014D00D68083523680B6063689B1A102B82
:1027100014D9A01810F0070F0CD04FF0500383F31A
:102720001188BFF36F8FBFF34F8FFEE700F0F0FF0C
:102730000025C4E743606260FFF76CFF62680E49E2
:102740000B689B1A0B600E4909688B4201D20C4939
:102750000B60084B1B68134363600023236000E099
:10276000002500F0D5FF002DABD1A8E7284638BDE5
:102770003C030020300300203803002040030020E9
:102780003403002080B338B50446A0F1080550F8A2
:10279000043C164A1268134208D14FF0500383F3E9
:1027A0001188BFF36F8FBFF34F8FFEE750F8081CFF
:1027B00041B14FF0500383F31188BFF36F8FBFF324
:1027C0004F8FFEE723EA020340F8043C00F0FEFED0
:1027D00054F8041C064A13680B4413602846FFF79C
:1027E00019FF00F095FF38BD704700BF300300208F
:1027F00038030020014B1868704700BF38030020E1
:102800000B4B1B68B3F1FF3F08D04FF0500383F32D
:102810001188BFF36F8FBFF34F8FFEE74FF0500368
:1028200083F31188BFF36F8FBFF34F8FFEE700BFB5
:102830004800002006480068006880F3088862B6F7
:1028400061B6BFF34F8FBFF36F8F00DF00BF000093
:1028500008ED00E04FF0807340F8043C21F00101E6
:1028600040F8081C054B40F80C3C40F8202C6FF059
:10287000020340F8243C4438704700BF0128000898
:10288000074B19680868B0E8F04F80F30988BFF378
:102890006F8F4FF0000080F311887047AFF3008016
:1028A000903001204FF0500383F31188BFF36F8FF6
:1028B000BFF34F8F0B4A136801331360012B00D015
:1028C00070474FF0E023D3F8043D13F0FF0FF7D02B
:1028D0004FF0500383F31188BFF36F8FBFF34F8F17
:1028E000FEE700BF48000020094B1B6843B94FF0CA
:1028F000500383F31188BFF36F8FBFF34F8FFEE751
:10290000013B034A13600BB983F31188704700BF82
:10291000480000200000000000000000000000004F
:10292000EFF30980BFF36F8F154B1A681EF0100F7D
:1029300008BF20ED108A20E9F04F10604DF8043DEB
:102940004FF0500080F31188BFF34F8FBFF36F8FAC
:1029500000F0A0FF4FF0000080F3118808BC196858
:102960000868B0E8F04F1EF0100F08BFB0EC108AF6
:1029700080F30988BFF36F8F704700BFAFF300800B
:102980009030012008B54FF0500383F31188BFF356
:102990006F8FBFF34F8F00F027FE28B14FF0E02379
:1029A0004FF08052C3F8042D002383F3118808BD33
:1029B000064B1B68064AA2FB03239B09013B4FF011
:1029C000E022536107231361704700BF0C00002011
:1029D000D34D62104FF0E023D3F8002D344B9A42D0
:1029E0001CD04FF0E023D3F8002D324B9A421ED07A
:1029F00010B582B0304B1A78D2B20192FF221A7011
:102A00001B78DBB28DF803309DF8033003F05003E0
:102A10002A4A13702A4B07221A601BE04FF050031A
:102A200083F31188BFF36F8FBFF34F8FFEE74FF033
:102A3000500383F31188BFF36F8FBFF34F8FFEE70F
:102A40001F4A1368013B13609DF803305B00DBB243
:102A50008DF803309DF8033013F0800FF0D1184A41
:102A600013681B02136003F4E0631360019BDBB285
:102A7000114A13704FF0E024D4F8203D43F4700362
:102A8000C4F8203DD4F8203D43F07043C4F8203D05
:102A9000FFF78EFF0B4B00221A60D4F8343F43F04F
:102AA0004043C4F8343FFFF7C5FEFFF7A9FE00BF5F
:102AB00071C20F4170C20F4100E400E04C2F0120B1
:102AC000482F012048000020EFF305830F2B0FD97A
:102AD000114A9B5CDBB2114A12789A4208D94FF036
:102AE000500383F31188BFF36F8FBFF34F8FFEE75F
:102AF0004FF0E023D3F80C3D03F4E063084A12687A
:102B0000934208D94FF0500383F31188BFF36F8FBE
:102B1000BFF34F8FFEE77047F0E300E04C2F01203A
:102B2000482F012000F1080343604FF0FF3282601C
:102B3000C360036100230360704700230361704793
:102B400043684B609A688A605160996008610368C5
:102B500001330360704730B40D68B5F1FF3F11D009
:102B600000F108031C465B681A68AA42FAD9636838
:102B70004B6099608C606160086103680133036099
:102B800030BC70470469F2E70369416882688A6073
:102B9000416851605A68824205D00022026118687B
:102BA00001381860704782685A60F6E710B504462D
:102BB000FFF778FEA26BE36B9A4204D00024FFF784
:102BC00093FE204610BD0124F9E710B50446FFF737
:102BD00069FEA36B23B90124FFF786FE204610BDD2
:102BE0000024F9E770B504461546866B026C5AB9A5
:102BF00003681BB100200136A66370BD406800F079
:102C0000E5FF00236360F6E76DB9806802F04AFED5
:102C1000A368226C1344A3606268934219D32368AB
:102C2000A3602846E7E7C06802F03CFEE368226C38
:102C300051429B1AE3602268934202D263680B44BC
:102C4000E360022D01D00020D5E726B1013E00202F
:102C5000D1E72846CFE70020CDE70346026C6AB1F2
:102C600010B50846D9681144D9605C68A14201D307
:102C70001968D960D96802F015FE10BD704738B5E3
:102C80000546FFF70FFE95F8454064B201E0013CB0
:102C900064B2002C0ADD6B6A43B105F1240000F038
:102CA00093FE0028F3D000F02BFFF0E7FF2385F818
:102CB0004530FFF719FEFFF7F5FD95F8444064B283
:102CC00001E0013C64B2002C0ADD2B6943B105F13F
:102CD000100000F079FE0028F3D000F011FFF0E7BB
:102CE000FF2385F84430FFF7FFFD38BD38B5E0B16C
:102CF0000D460446FFF7D6FD2368E26B216C01FB0D
:102D0000023060600020A063A360013A02FB01333F
:102D1000E360FF2384F8443084F84530FDB923692B
:102D200063B9FFF7E1FD012038BD4FF0500383F395
:102D30001188BFF36F8FBFF34F8FFEE704F11000D0
:102D400000F042FE0028ECD04FF0E0234FF080521C
:102D5000C3F8042DBFF34F8FBFF36F8FE1E704F18A
:102D60001000FFF7DFFE04F12400FFF7DBFED8E7D9
:102D700038B51D46049C0B4649B92460E0632364C2
:102D800001212046FFF7B2FF84F84C5038BD226085
:102D9000F4E740B94FF0500383F31188BFF36F8F0E
:102DA000BFF34F8FFEE7F0B583B00C4615460646DD
:102DB00089B101FB00F05030FFF75EFC074638B1E7
:102DC00000902B4600F1500221463046FFF7D0FF1D
:102DD000384603B0F0BD0846EDE7F0B585B0019286
:102DE00088B10F461D460446B1B1022D20D1E36BD8
:102DF000012B1DD04FF0500383F31188BFF36F8F69
:102E0000BFF34F8FFEE74FF0500383F31188BFF3FA
:102E10006F8FBFF34F8FFEE7036C002BE5D04FF0B1
:102E2000500383F31188BFF36F8FBFF34F8FFEE71B
:102E300000F06CFE064658B9019B002B48D04FF0BD
:102E4000500383F31188BFF36F8FBFF34F8FFEE7FB
:102E500000263DE02A4639462046FFF7C3FE636A56
:102E60007BB948B14FF0E0234FF08052C3F8042DF6
:102E7000BFF34F8FBFF36F8FFFF736FD012005B013
:102E8000F0BD04F1240000F09FFD0028F4D04FF0C5
:102E9000E0234FF08052C3F8042DBFF34F8FBFF3F0
:102EA0006F8FE9E7FFF720FD0020E8E702A800F0B8
:102EB000D1FD012619E0002384F8443021E00023ED
:102EC00084F8453023E02046FFF7D9FE00F020FCCF
:102ED000FFF7E8FCA26BE36B9A42BBD3022DB9D09B
:102EE000019B002BDED0002EE0D0FFF7FDFC00F0B0
:102EF0006DFBFFF7D7FC94F8442052B2B2F1FF3FCC
:102F0000D9D094F8452052B2B2F1FF3FD7D0FFF7A5
:102F1000EBFC01A902A800F0B3FDD8B92046FFF7E9
:102F200045FE0028CFD0019904F1100000F018FDF3
:102F30002046FFF7A4FE00F0EBFB0028C8D14FF0BD
:102F4000E0234FF08052C3F8042DBFF34F8FBFF33F
:102F50006F8FBDE72046FFF792FE00F0D9FB0020FF
:102F60008DE72DE9F84390B10F4616461C460546FD
:102F7000B1B1022C20D1EB6B012B1DD04FF05003CF
:102F800083F31188BFF36F8FBFF34F8FFEE74FF0CE
:102F9000500383F31188BFF36F8FBFF34F8FFEE7AA
:102FA000036C002BE5D04FF0500383F31188BFF37F
:102FB0006F8FBFF34F8FFEE7FFF786FDEFF31188AA
:102FC0004FF0500383F31188BFF36F8FBFF34F8F20
:102FD000AA6BEB6B9A4206D3022C04D0002088F334
:102FE0001188BDE8F88395F845904FFA89F9224693
:102FF00039462846FFF7F6FDB9F1FF3F06D009F143
:1030000001035BB285F845300120E8E76B6A0BB934
:103010000120E4E705F1240000F0D6FC18B126B148
:1030200001203060DBE70120D9E70120D7E72DE957
:10303000F04184B00192A0B10E4698460446C9B151
:1030400000F064FD054608BB019B002B00F0878063
:103050004FF0500383F31188BFF36F8FBFF34F8F8F
:10306000FEE74FF0500383F31188BFF36F8FBFF378
:103070004F8FFEE7036C002BE2D04FF0500383F339
:103080001188BFF36F8FBFF34F8FFEE7002566E017
:10309000E56831462046FFF7E0FDB8F1000F20D18A
:1030A0007B1EA36323683BB123694BB9FFF71CFC6C
:1030B000012004B0BDE8F08100F0E0FD6060F3E7BE
:1030C00004F1100000F080FC0028EFD04FF0E02366
:1030D0004FF08052C3F8042DBFF34F8FBFF36F8FB3
:1030E000E4E7E560636A002BE0D004F1240000F01F
:1030F0006BFC0028DAD04FF0E0234FF08052C3F889
:10310000042DBFF34F8FBFF36F8FCFE7FFF7ECFBBB
:103110000020CEE702A800F09DFC012529E0002355
:1031200084F8443031E0002384F8453033E0FFF781
:10313000B9FB606800F0FAFCFFF7D6FB3BE02046E5
:10314000FFF79DFD00F0E4FA09E02046FFF797FD48
:1031500000F0DEFA2046FFF738FD002842D1FFF7E5
:10316000A1FBA76B002F93D1019B002BCED0002D8C
:10317000D0D0FFF7B9FB00F029FAFFF793FB94F8E2
:10318000442052B2B2F1FF3FC9D094F8452052B268
:10319000B2F1FF3FC7D0FFF7A7FB01A902A800F0DB
:1031A0006FFC0028D1D12046FFF70FFD0028C6D0C4
:1031B0002368002BBBD0019904F1240000F0D0FB60
:1031C0002046FFF75CFD00F0A3FA0028C7D14FF0BE
:1031D000E0234FF08052C3F8042DBFF34F8FBFF3AD
:1031E0006F8FBCE7002064E70023072B0CD8074A49
:1031F00052F833200AB10133F7E7044A42F833109A
:1032000002EBC30250607047704700BF502F01208F
:1032100070B504460D461646FFF744FB94F844305B
:103220005BB2B3F1FF3F0DD094F845305BB2B3F120
:10323000FF3F0BD0FFF758FBA36B5BB12046FFF7B6
:103240001EFD70BD002384F84430EDE7002384F8B0
:103250004530EFE73246294604F1240000F098FBA0
:10326000ECE70000084B1B681B6823B9074B4FF0C5
:10327000FF321A607047044B1B68DB68DB685A68D2
:10328000024B1A60704700BF00300120982F0120C8
:1032900010B50446006BFFF775FA2046FFF772FA87
:1032A00010BD2DE9F04780460D4617469946089E09
:1032B000DDF824A00A9C9200A521206B02F04FFAB1
:1032C000236B07F18042013A03EB820727F00707DF
:1032D0004FF0000CBCF1090F09D815F90C3004EBC4
:1032E0000C0282F8343013B10CF1010CF2E7002328
:1032F00084F83D30042E00D90426E662A664002539
:10330000E564201DFFF719FC04F11800FFF715FC18
:103310002461C6F10506A6616462256584F85450EF
:103320004A4641463846FFF795FA2060BAF1000F49
:1033300001D0CAF80040BDE8F087000038B500248D
:1033400007E004EB840293000E481844FFF7EAFB01
:103350000134042CF5D90C4D2846FFF7E3FB0B4C48
:103360002046FFF7DFFB0A48FFF7DCFB0948FFF7C1
:10337000D9FB0948FFF7D6FB084B1D60084B1C60C2
:1033800038BD00BF2C30012018300120043001204E
:10339000E82F0120D42F0120BC2F01200030012074
:1033A000FC2F012010B50446FFF77CFA224A13686F
:1033B00001331360214B1B685BB1214B1B686BB958
:1033C0001E4B1B68DA6AE36A9A4207D81B4B1C60E3
:1033D00004E01A4B1C601368012B29D0194A1368AA
:1033E000013313602364E06A01238340164A1168A5
:1033F0000B43136000EB8000211D144B03EB800096
:10340000FFF79EFBFFF770FA0D4B1B687BB10B4B70
:103410001B68DA6AE36A9A4209D24FF0E0234FF060
:103420008052C3F8042DBFF34F8FBFF36F8F10BDD1
:10343000FFF784FFD2E700BFB82F012090300120B2
:10344000AC2F01209C2F0120B02F01202C30012017
:1034500070B504460D461D4B1E681D4B18680430A0
:10346000FFF792FB48B91A4B1B68DB6A01229A40AE
:1034700018490B6823EA02030B60B4F1FF3F0DD03B
:103480003444134B1B685C60A64210D9124B186879
:103490000F4B19680431FFF75EFB70BD002DEFD0B4
:1034A0000B4B196804310D48FFF74AFBF5E70C4B4D
:1034B0001868074B19680431FFF74DFB094B1B686F
:1034C000A342EAD9074B1C60E7E700BFB42F0120F5
:1034D00090300120B02F0120FC2F0120BC2F0120B3
:1034E00000300120982F01202DE9F04385B00746D8
:1034F0000E4614461D469000FFF7BEF8F8B181460F
:103500005820FFF7B9F8804698B1C0F830900023F2
:10351000039302900D9B01930C9B00932B46224634
:1035200031463846FFF7BDFE4046FFF73BFF01201E
:1035300007E04846FFF726F94FF0FF3001E04FF073
:10354000FF3005B0BDE8F08300B583B0194B01939F
:1035500000230093822218491848FFF7C5FF01286D
:1035600005D0B0F1FF3F1BD003B05DF804FB00F0C5
:1035700015FC0128F5D14FF0500383F31188BFF3F8
:103580006F8FBFF34F8F0E4B4FF0FF321A600D4B12
:1035900001221A600C4B00221A60FFF71BFAE3E7C6
:1035A0004FF0500383F31188BFF36F8FBFF34F8F3A
:1035B000FEE700BF942F0120AC6B000865380008BF
:1035C000982F0120AC2F0120B42F0120024A13684C
:1035D00001331360704700BF902F0120014B186822
:1035E000704700BFB42F0120F8B53E4B1B68002B7D
:1035F0006AD13D4B1D6801351D60C5B93B4B1B6849
:103600001B6843B14FF0500383F31188BFF36F8FF2
:10361000BFF34F8FFEE7354A1168354B18681060CD
:103620001960344A136801331360FFF71BFE324BF5
:103630001B68AB423ED90027304B1B68DB6A03EBAB
:1036400083039A002E4B9B58012B00D901272D4B49
:103650001B68002B3FD1FEF7A8FF3CE00127234B5E
:103660001B681B6843B3214B1B68DB68DC6863681D
:103670009D4226D3261D3046FFF786FAA36A1BB16A
:1036800004F11800FFF780FAE36A01229A401E490C
:10369000086802430A6003EB83039A003146184826
:1036A0001044FFF74DFAE26A144B1B68DB6A9A423A
:1036B000D4D2D4E70027D2E70F4B4FF0FF321A6085
:1036C000BAE70D4A1360B7E70E4A13680133136077
:1036D000FEF76BFF00270D4B1B6803B1012738462F
:1036E000F8BD00BF902F0120B42F01200030012031
:1036F000FC2F0120A02F0120982F012090300120C5
:103700002C300120A82F0120B02F0120A42F012050
:1037100038B5354B1B6843B94FF0500383F311881C
:10372000BFF36F8FBFF34F8FFEE7FFF7BBF82E4B52
:103730001A68013A1A601B68002B4FD12B4B1B688B
:103740000BB900244BE00024294B1B681BB3284B0A
:10375000DB68DC6804F11800FFF716FA251D28461F
:10376000FFF712FAE06A01238340224A11680B43F3
:10377000136000EB800029461F4B03EB8000FFF72E
:10378000DFF9E26A1D4B1B68DB6A9A42DCD31C4BF3
:1037900001221A60D8E70CB1FFF764FD194B1C68D1
:1037A00084B9174B1C68D4B14FF0E0234FF080521E
:1037B000C3F8042DBFF34F8FBFF36F8F01240EE0CA
:1037C000013C07D0FFF710FF0028F9D00C4B012275
:1037D0001A60F5E70B4B00221A60E2E70024FFF7BE
:1037E00083F8204638BD00BF902F0120B82F01205C
:1037F000E82F0120B02F01202C3001209030012033
:10380000A42F0120A82F0120134B1B6813B310B560
:10381000FFF7DCFE114B1C68FFF77AFF24B90E4B53
:103820001B68002BF4D110BDFFF73CF80B4BDB6895
:10383000DC68201DFFF7A8F9094A1368013B1360F3
:10384000054A1368013B1360FFF74EF82046FFF767
:103850001FFDE4E7704700BFD02F0120D42F0120C7
:10386000B82F012008B50BE04FF0E0234FF0805255
:10387000C3F8042DBFF34F8FBFF36F8FFEF78CFE9D
:10388000FFF7C2FF024B1B68012BEDD8F6E700BF24
:103890002C30012008B52D4B1B681BB12C4B01228D
:1038A0001A6008BD2A4B00221A602A4B1B681B6B4A
:1038B0001A68B2F1A53F03D15A68B2F1A53F1BD0F7
:1038C000244B186819683431FEF765FE224B1B68DB
:1038D000B3FA83F3DBB2C3F11F0303EB83018A0066
:1038E0001E498A588AB94FF0500383F31188BFF3F9
:1038F0006F8FBFF34F8FFEE79A68B2F1A53FDFD11C
:10390000DB68B3F1A53FDBD1E0E7144803EB8301AB
:103910008A00024451684968516003EB830C4FEA06
:103920008C0208320244914209D003EB83039A00CF
:103930000A4B13445B68DA68064B1A60B1E74868C3
:1039400062469100054A0A445060EEE7902F01203C
:10395000A42F012090300120B02F01202C30012015
:1039600058B110B50C46094A11681831FFF7F3F841
:1039700001212046FFF76CFD10BD4FF0500383F38B
:103980001188BFF36F8FBFF34F8FFEE79030012098
:1039900038B570B10D4614460A4A11681831FFF760
:1039A000CFF80CB14FF0FF3521462846FFF750FD08
:1039B00038BD4FF0500383F31188BFF36F8FBFF30F
:1039C0004F8FFEE79030012038B5C368DC6824B320
:1039D00004F118052846FFF7D7F8184B1B682BBBD6
:1039E000251D2846FFF7D0F8E06A01238340144ADA
:1039F00011680B43136000EB80002946114B03EB69
:103A00008000FFF79DF8E26A0F4B1B68DB6A9A4261
:103A100011D901200D4B186038BD4FF0500383F3CE
:103A20001188BFF36F8FBFF34F8FFEE72946084819
:103A3000FFF786F8E7E70020EEE700BF902F0120B0
:103A4000B02F01202C30012090300120A42F012024
:103A5000E82F012030B1084A12680260074A126854
:103A6000426070474FF0500383F31188BFF36F8FAC
:103A7000BFF34F8FFEE700BFA02F0120B42F01201E
:103A800038B5C0B10C460546F1B1FEF70BFF1A4B35
:103A90001A682368B3F1FF3F27D0286817490968DF
:103AA000884202D06968914224D96968501A8342D9
:103AB00013D801241AE04FF0500383F31188BFF3A9
:103AC0006F8FBFF34F8FFEE74FF0500383F31188E2
:103AD000BFF36F8FBFF34F8FFEE7891A0B4423604C
:103AE0002846FFF7B7FF002400E00024FEF7FCFEA5
:103AF000204638BD0124F9E7B42F0120A02F012072
:103B0000014B01221A607047A42F0120054B1B684E
:103B100033B1054B1B680BB1002070470220704782
:103B200001207047AC2F0120902F0120002845D0A4
:103B300038B50446C36A224A1268D26A934214D244
:103B40008269002A05DB1E4A1268D26AC2F10502A8
:103B50008261616903EB83031A4A02EB8303994292
:103B600004D0174B1B68DB6AE36238BD251D28466D
:103B7000FFF70AF890B1124B1B68D86AE062012384
:103B80008340114A11680B43136000EB8000294603
:103B90000C4B03EB8000FEF7D3FFE6E7E36A03EB91
:103BA0008301084A52F82120002AE4D101229A40D8
:103BB00005490B6823EA02030B60DCE7704700BF8E
:103BC000903001202C300120B02F012000284BD054
:103BD00038B50446264B1B68834208D04FF050038B
:103BE00083F31188BFF36F8FBFF34F8FFEE7C36C72
:103BF00043B94FF0500383F31188BFF36F8FBFF3C6
:103C00004F8FFEE7013BC364C16A826C91422DD0A5
:103C10000BB1002038BD051D2846FEF7B5FF68B979
:103C2000E36A03EB8301134A52F8212032B90122DF
:103C30009A4011490B6823EA02030B60A06CE06212
:103C4000C0F10503A361012404FA00F30A4A1168D4
:103C50000B43136000EB80002946064B03EB80000A
:103C6000FEF76EFF2046D5E7002070470020D1E721
:103C7000903001202C300120B02F0120054B1B6813
:103C800023B1044B1A68D36C0133D364014B186819
:103C9000704700BF90300120064B1A681368B3FAD2
:103CA00083F35B09036013B9D36818687047002079
:103CB000704700BFA430012008B541600061914207
:103CC0000CD8D21A83699A4201D3012008BD011D84
:103CD000094B1868FEF73FFF0020F7E79A4201D230
:103CE000994206D2011D054B1868FEF734FF0020EB
:103CF000ECE70120EAE700BFA0300120A43001205A
:103D000038B5FEF7CFFD0F4B1B6813B1FEF7ECFD86
:103D100038BD0D4D2846FEF705FF0C4C2046FEF73A
:103D200001FF0B4B1D600B4B1C6000220C210A2075
:103D3000FFF72FF8034B18600028E7D00649FFF77C
:103D400053FAE3E79C300120BC300120A830012069
:103D5000A4300120A0300120B46B00082DE9F0410F
:103D6000079F41B94FF0500383F31188BFF36F8F62
:103D7000BFF34F8FFEE7064615461C4688465FB1E7
:103D8000FFF7BEFF3E60C7F81880FD613C62069BEE
:103D90007B62381DFEF7D1FEBDE8F08100B583B02F
:103DA000FFF7AEFF0D4B1B685BB10D4B0193022378
:103DB000009300234FF482720A490B48FFF794FBEB
:103DC00040B94FF0500383F31188BFF36F8FBFF3F7
:103DD0004F8FFEE703B05DF804FB00BF9C3001206D
:103DE00098300120BC6B0008E14000082DE9F0414B
:103DF00082B00446884615461E462C20FEF73CFC41
:103E0000074640B10190089B009333462A4641463D
:103E10002046FFF7A3FF384602B0BDE8F08100005E
:103E2000B8B19C4603461848006858B300B585B041
:103E300001910292039305291CDCFFF767FE02281B
:103E400010D000231A4601A90F480068FEF7C5FFED
:103E500015E04FF0500383F31188BFF36F8FBFF36A
:103E60004F8FFEE70023069A01A907480068FEF776
:103E7000B4FF04E00023624601A9FFF772F805B021
:103E80005DF804FB002070479C30012070B582B0C3
:103E90001A4B1B681A6852B3DB681E68DC68251D64
:103EA0002846FEF771FE636A20469847E369012BB6
:103EB000EED1A36933449E4207D263602461294650
:103EC0000E4B1868FEF747FEE2E7002100910B4613
:103ED00032462046FFF7A4FF0028D9D14FF0500307
:103EE00083F31188BFF36F8FBFF34F8FFEE7044A50
:103EF000106802490860136002B070BDA430012050
:103F0000A030012038B50546FFF768FB0446074B93
:103F10001B68834205D800232B60044B1C6020469D
:103F200038BDFFF7B3FF01232B60F6E79430012083
:103F300070B582B006460D4614490968C968CC6858
:103F4000201DFEF721FEE169012904D0636A2046A5
:103F5000984702B070BDA16933462A4631442046D5
:103F6000FFF7AAFE0028F1D0002100910B4632464F
:103F70002046FFF755FF0028E8D14FF0500383F3A8
:103F80001188BFF36F8FBFF34F8FFEE7A43001207E
:103F900070B582B006460C46FFF718FB01A8FFF784
:103FA000B1FF019B23BB054644B9B0420CD3FFF7D8
:103FB000AFFB29463046FFF7BBFF1BE00E4B1B68EB
:103FC0001C68B4FA84F464092246711B0B4B186810
:103FD000FFF71EF9FFF79CFB60B94FF0E0234FF0AD
:103FE0008052C3F8042DBFF34F8FBFF36F8F01E0F2
:103FF000FFF78EFB02B070BDA03001209C30012085
:1040000010B586B000231A4603A934480068FFF7AC
:104010000EF8002860D0039B002BF3DB059C63693E
:1040200013B1201DFEF7B0FD02A8FFF76BFF039B45
:10403000092BE7D801A252F823F000BF6540000821
:10404000654000086540000805400008AB400008D6
:10405000D1400008654000086540000805400008A0
:10406000AB400008049BA169024619442046FFF7B3
:1040700023FE0028C6D0636A20469847E369012BD7
:10408000C0D1A269002100910B4604980244204649
:10409000FFF7C6FE0028B5D14FF0500383F3118817
:1040A000BFF36F8FBFF34F8FFEE70499A16131B16A
:1040B0000346024601442046FFF7FEFDA2E74FF00B
:1040C000500383F31188BFF36F8FBFF34F8FFEE769
:1040D0002046FEF757FB95E706B010BD9C30012047
:1040E00000B583B001A8FFF7D7FD0199FFF750FF96
:1040F000FFF786FFF6E7000081F0004102E000BF15
:1041000083F0004330B54FEA41044FEA430594EA97
:10411000050F08BF90EA020F1FBF54EA000C55EAD2
:10412000020C7FEA645C7FEA655C00F0E2804FEAA3
:104130005454D4EB5555B8BF6D420CDD2C4480EA85
:10414000020281EA030382EA000083EA010180EAB5
:10415000020281EA0303362D88BF30BD11F0004F03
:104160004FEA01314FF4801C4CEA113102D0404239
:1041700061EB410113F0004F4FEA03334CEA133374
:1041800002D0524263EB430394EA050F00F0A7808C
:10419000A4F10104D5F1200E0DDB02FA0EFC22FA87
:1041A00005F2801841F1000103FA0EF2801843FA7B
:1041B00005F359410EE0A5F120050EF1200E012A6C
:1041C00003FA0EFC28BF4CF0020C43FA05F3C018AA
:1041D00051EBE37101F0004507D54FF0000EDCF123
:1041E000000C7EEB00006EEB0101B1F5801F1BD3CC
:1041F000B1F5001F0CD349085FEA30004FEA3C0CD0
:1042000004F101044FEA445212F5800F80F09A80C5
:10421000BCF1004F08BF5FEA500C50F1000041EBC9
:10422000045141EA050130BD5FEA4C0C404141EBCD
:104230000101013C28BFB1F5801FE9D291F0000FC8
:1042400004BF01460020B1FA81F308BF2033A3F177
:104250000B03B3F120020CDA0C3208DD02F1140C6E
:10426000C2F10C0201FA0CF021FA02F10CE002F1A9
:104270001402D8BFC2F1200C01FA02F120FA0CFCA2
:10428000DCBF41EA0C019040E41AA2BF01EB0451EB
:10429000294330BD6FEA04041F3C1CDA0C340EDCE9
:1042A00004F11404C4F1200220FA04F001FA02F32C
:1042B00040EA030021FA04F345EA030130BDC4F1EA
:1042C0000C04C4F1200220FA02F001FA04F340EADF
:1042D0000300294630BD21FA04F0294630BD94F090
:1042E000000F83F4801306BF81F480110134013D77
:1042F0004EE77FEA645C18BF7FEA655C29D094EAE8
:10430000050F08BF90EA020F05D054EA000C04BF65
:104310001946104630BD91EA030F1EBF0021002050
:1043200030BD5FEA545C05D14000494128BF41F0EF
:10433000004130BD14F580043CBF01F5801130BD53
:1043400001F0004545F0FE4141F470014FF00000DE
:1043500030BD7FEA645C1ABF194610467FEA655C8F
:104360001CBF0B46024650EA013406BF52EA033531
:1043700091EA030F41F4002130BD00BF90F0000F1F
:1043800004BF0021704730B54FF4806404F132045B
:104390004FF000054FF0000150E700BF90F0000F14
:1043A00004BF0021704730B54FF4806404F132043B
:1043B00010F0004548BF40424FF000013EE700BF0B
:1043C00042004FEAE2014FEA31014FEA02701FBF9B
:1043D00012F07F4393F07F4F81F06051704732F0CD
:1043E0007F4208BF704793F07F4F04BF41F4002124
:1043F000704730B54FF4607401F0004521F0004182
:104400001CE700BF50EA010208BF704730B54FF00B
:1044100000050AE050EA010208BF704730B511F00C
:10442000004502D5404261EB41014FF4806404F144
:1044300032045FEA915C3FF4D8AE4FF003025FEACA
:10444000DC0C18BF03325FEADC0C18BF033202EB4E
:10445000DC02C2F1200300FA03FC20FA02F001FAA8
:1044600003FE40EA0E0021FA02F11444BDE600BF4B
:1044700070B54FF0FF0C4CF4E06C1CEA11541DBFFA
:104480001CEA135594EA0C0F95EA0C0F00F0DEF8C5
:104490002C4481EA030621EA4C5123EA4C5350EAAA
:1044A000013518BF52EA033541F4801143F48013FB
:1044B00038D0A0FB02CE4FF00005E1FB02E506F08C
:1044C0000042E0FB03E54FF00006E1FB03569CF0E1
:1044D000000F18BF4EF0010EA4F1FF04B6F5007FE7
:1044E00064F5407404D25FEA4E0E6D4146EB060659
:1044F00042EAC62141EA55514FEAC52040EA5E50E2
:104500004FEACE2EB4F1FD0C88BFBCF5E06F1ED88B
:10451000BEF1004F08BF5FEA500E50F1000041EBC2
:10452000045170BD06F0004646EA010140EA02006F
:1045300081EA0301B4EB5C04C2BFD4EB0C0541EA91
:10454000045170BD41F480114FF0000E013C00F3A6
:10455000AB8014F1360FDEBF002001F0004170BDCA
:10456000C4F10004203C35DA0C341BDC04F11404E3
:10457000C4F1200500FA05F320FA04F001FA05F26F
:1045800040EA020001F0004221F0004110EBD3703C
:1045900021FA04F642EB06015EEA430E08BF20EA68
:1045A000D37070BDC4F10C04C4F1200500FA04F30B
:1045B00020FA05F001FA04F240EA020001F000419D
:1045C00010EBD37041F100015EEA430E08BF20EA10
:1045D000D37070BDC4F1200500FA05F24EEA020E58
:1045E00020FA04F301FA05F243EA020321FA04F087
:1045F00001F0004121FA04F220EA020000EBD3703E
:104600005EEA430E08BF20EAD37070BD94F0000F3D
:104610000FD101F00046400041EB010111F4801F71
:1046200008BF013CF7D041EA060195F0000F18BF22
:10463000704703F00046520043EB030313F4801F5E
:1046400008BF013DF7D043EA0603704794EA0C0F18
:104650000CEA135518BF95EA0C0F0CD050EA41062E
:1046600018BF52EA4306D1D181EA030101F00041AB
:104670004FF0000070BD50EA410606BF10461946D3
:1046800052EA430619D094EA0C0F02D150EA0136DF
:1046900013D195EA0C0F05D152EA03361CBF104620
:1046A00019460AD181EA030101F0004141F0FE41BF
:1046B00041F470014FF0000070BD41F0FE4141F443
:1046C000780170BD70B54FF0FF0C4CF4E06C1CEA43
:1046D00011541DBF1CEA135594EA0C0F95EA0C0FF8
:1046E00000F0A7F8A4EB050481EA030E52EA0335B3
:1046F0004FEA013100F088804FEA03334FF08055D4
:1047000045EA131343EA12634FEA022245EA111500
:1047100045EA10654FEA00260EF000419D4208BFB1
:10472000964244F1FD0404F5407402D25B084FEA5E
:104730003202B61A65EB03055B084FEA32024FF40A
:1047400080104FF4002CB6EB020E75EB030E22BF67
:10475000B61A754640EA0C005B084FEA3202B6EB27
:10476000020E75EB030E22BFB61A754640EA5C00D6
:104770005B084FEA3202B6EB020E75EB030E22BF66
:10478000B61A754640EA9C005B084FEA3202B6EB67
:10479000020E75EB030E22BFB61A754640EADC0026
:1047A00055EA060E18D04FEA051545EA16754FEA88
:1047B00006164FEAC30343EA52734FEAC2025FEAA6
:1047C0001C1CC0D111F4801F0BD141EA00014FF035
:1047D00000004FF0004CB6E711F4801F04BF014306
:1047E0000020B4F1FD0C88BFBCF5E06F3FF6AFAE22
:1047F000B5EB030C04BFB6EB020C5FEA500C50F1B2
:10480000000041EB045170BD0EF0004E4EEA113134
:1048100014EB5C04C2BFD4EB0C0541EA045170BD3B
:1048200041F480114FF0000E013C90E645EA060E7F
:104830008DE60CEA135594EA0C0F08BF95EA0C0FAD
:104840003FF43BAF94EA0C0F0AD150EA01347FF4F5
:1048500034AF95EA0C0F7FF425AF104619462CE7CC
:1048600095EA0C0F06D152EA03353FF4FDAE10462F
:10487000194622E750EA410618BF52EA43067FF480
:10488000C5AE50EA41047FF40DAF52EA43057FF410
:10489000EBAE12E74FEA410212F5001215D211D524
:1048A0006FF47873B3EB625212D94FEAC12343F02D
:1048B000004343EA505311F0004F23FA02F018BFAF
:1048C000404270474FF00000704750EA013005D178
:1048D00011F0004008BF6FF0004070474FF000003B
:1048E000704700BF53B94AB9002908BF00281CBF50
:1048F0004FF0FF314FF0FF3000F06AB9ADF1080C16
:104900006DE904CE00F006F8DDF804E0DDE90223ED
:1049100004B070472DE9F047089D0E4604460F4647
:10492000002B4AD194468C45B2FA82F260D942B14A
:10493000C2F12003974020FA03F30CFA02FC1F4354
:1049400094404FEA1C4E1FFA8CF6B7FBFEF1230C85
:104950000EFB117743EA074301FB06F098420AD9A0
:104960001CEB030301F1FF3780F01581984240F200
:104970001281023963441B1AA4B2B3FBFEF00EFB92
:10498000103344EA034400FB06F6A6420AD91CEBA6
:10499000040400F1FF3380F00081A64240F2FD8064
:1049A0006444023840EA0140A41B00211DB1D440F8
:1049B0000023C5E90043BDE8F0878B4205D90DB15E
:1049C000C5E9000100210846F5E7B3FA83F10029A3
:1049D00046D1B34202D3824200F2F580841A66EBDC
:1049E000030201201746002DE5D0C5E90047E2E7A4
:1049F000002A40F09380A1EB0C034FEA1C471FFAFA
:104A00008CFE0121B3FBF7F607FB1630230C43EABB
:104A100000430EFB06F0984208D91CEB030306F195
:104A2000FF3802D2984200F2D08046461B1AA4B248
:104A3000B3FBF7F007FB103344EA03440EFB00FE20
:104A4000A64508D91CEB040400F1FF3302D2A645A9
:104A500000F2B6801846A4EB0E0440EA0640A5E733
:104A6000C1F120078B4022FA07FC4CEA030C06FA3E
:104A700001FE20FA07F426FA07F344EA0E0400FACE
:104A800001F84FEA1C404FEA1449B3FBF0FE1FFA4D
:104A90008CF600FB1E3349EA03430EFB06F99945E9
:104AA00002FA01F20BD91CEB03030EF1FF3A80F07E
:104AB0008580994540F28280AEF1020E6344A3EBFB
:104AC0000909A4B2B9FBF0F300FB139944EA0944C5
:104AD00003FB06F6A64208D91CEB040403F1FF30E1
:104AE00068D2A64266D9023B644443EA0E40A41B46
:104AF000A0FB02E6B4427346B14652D34FD05DB13B
:104B0000B8EB030264EB090404FA07F722FA01F395
:104B10001F43CC40C5E9007400214CE7C2F12001DD
:104B200020FA01F30CFA02FC26FA01F19640334315
:104B30004FEA1C471FFA8CFEB1FBF7F007FB10167B
:104B4000190C41EA064100FB0EF68E4204FA02F40B
:104B500008D91CEB010100F1FF382DD28E422BD970
:104B600002386144891B9BB2B1FBF7F607FB1611B3
:104B700043EA014306FB0EF1994208D91CEB0303FB
:104B800006F1FF3814D2994212D9023E63445B1AEF
:104B900046EA004136E73946EDE6184602E7F045B9
:104BA000ADD2BEEB020366EB0C060138B146A6E7B8
:104BB0004646ECE7034698E74046D3E7D6467EE70D
:104BC0006444023847E708460DE7023E63442DE798
:104BD000704700BF08B5064B044613B10021AFF380
:104BE0000080044B1B6803B198472046FCF7ECFAA1
:104BF000000000000832012038B5104B1D682B6BF7
:104C00000446B3B9182000F0ADFE0246286320B96F
:104C10000B4B0C484621FCF743FA0B490B4BC0E900
:104C200000130B4B83600B23838100210120C2E919
:104C300004012B6B00221C615A6138BD5800002012
:104C4000D46B0008EB6B00080E33CDAB34126DE66D
:104C5000ECDE0500164B10B51C68236BB3B91820A9
:104C600000F080FE0246206320B9124B1248522108
:104C7000FCF716FA1149124BC0E90013114B83607F
:104C80000B23838100210120C2E90401216B0E481E
:104C90000B694C690D4A584302FB0400A3FB023226
:104CA000013340EB0200C1E9043020F0004010BDA8
:104CB00058000020D46B0008EB6B00080E33CDAB1E
:104CC00034126DE6ECDE05002DF451582D7F954C25
:104CD00070B505460C46B9B118B1036A0BB900F0BE
:104CE000F3F9626EB4F90C30D60704D498050ED4EB
:104CF000A06D00F0CBFDB4F90C3043B9636ED90759
:104D000002D4A06D00F0C3FD0026304670BD2146E0
:104D1000284600F03BF8236B064633B1216A28464B
:104D200098470028B8BF4FF0FF36A3891A0603D56D
:104D30002169284600F0CCFD616B41B104F14403C8
:104D4000994202D0284600F0C3FD00236363A16CA2
:104D500021B1284600F0BCFD0023A36400F056F901
:104D60000023A381636EDB0702D4A06D00F08FFDEA
:104D7000A06D00F08AFD00F04FF9C6E7024B014636
:104D80001868FFF7A5BF00BF58000020B1F90C203C
:104D90002DE9F041160705460C4654D44B68002B0C
:104DA00002DC0B6C002B48DDE66A002E45D00023A8
:104DB00012F480522F68216A2B6030D0626DA38973
:104DC000590705D56368D21A636B0BB1236CD21AED
:104DD0000023E66A216A2846B047431CA38906D10E
:104DE00029681D292BD82A4ACA40D60727D5002270
:104DF0006260D9042269226004D5421C01D12B686B
:104E000003B96065616B2F60B9B104F14403994245
:104E100002D0284600F05CFD002363630DE001230F
:104E20002846B0470246501CC9D12B68002BC6D07B
:104E30001D2B01D0162B1ED12F60002022E043F045
:104E400040031BB21BE00F69002FF6D093070E68DA
:104E500008BF4B690F6018BF0023A6EB07088B60E3
:104E6000B8F1000FE9DD216AA66A43463A462846B2
:104E7000B047002808DCB4F90C3043F04003A381AC
:104E80004FF0FF30BDE8F0810744A8EB0008E7E7EA
:104E90000100402038B50B6905460C4613B90025C2
:104EA000284638BD18B1036A0BB900F00DF9B4F902
:104EB0000C30002BF3D0626ED00704D4990502D4D5
:104EC000A06D00F0E3FC28462146FFF75FFF636E0C
:104ED000DA070546E4D4A3899B05E1D4A06D00F070
:104EE000D6FCDDE7014620B9044A0549054800F033
:104EF00073B9054B1868FFF7CDBF00BF4C00002009
:104F0000954E00085C00002058000020002310B5DA
:104F10000446C0E90033C0E90433836081814366FD
:104F2000C2818361194608225C3000F018FC0D4BE9
:104F300063620D4BA3620D4BE3620D4B23630D4B7C
:104F400024629C4206D003F16802944202D0D0331E
:104F50009C4205D104F15800BDE8104000F094BC1B
:104F600010BD00BF11540008335400086B540008F2
:104F70008F540008D0300120024A0349034800F052
:104F80002BB900BF4C000020954E00085C000020AB
:104F900041680C4B994210B5044601D0FFF77AFFE7
:104FA000A168094B994202D02046FFF773FFE168E0
:104FB000064B994204D02046BDE81040FFF76ABF77
:104FC00010BD00BFD030012038310120A0310120B8
:104FD00010B50B4B0B4C0C4A1A60204600220421E2
:104FE000FFF794FF04F1680001220921FFF78EFF0B
:104FF00004F1D0000222BDE810401221FFF786BF65
:1050000008320120D0300120794F0008014800F01B
:105010003DBC00BF0D320120014800F038BC00BF8C
:105020000D320120F8B50746FFF7F0FF234B1B6850
:105030000BB9FFF7CDFF224ED6E90134013B0FD566
:105040003568002D37D14FF4D671384600F0B4FCE6
:10505000044628BB3060FFF7DFFF0C233B601BE0FA
:10506000B4F90C50D5B9174BE36004F158006566EC
:1050700000F00AFCFFF7D0FFC4E90155C4E904556C
:105080002560A5610822294604F15C0000F067FB59
:10509000C4E90D55C4E912552046F8BD6834CDE782
:1050A0000423056043600C30A0604FF4D0722946A1
:1050B00000F055FB34603668BEE700BF08320120BF
:1050C0004C0000200100FFFF10B50446FFF79EFFD3
:1050D000236A1BB1BDE81040FFF79EBF044B23625B
:1050E000044B1B68002BF5D1FFF772FFF2E700BFFE
:1050F000914F000808320120F7B50F46114601AA6A
:10510000064601F00BF90546B0B13046FFF78AFFBD
:10511000044688B13946019A4FF4DB73304600F0FB
:1051200077FB071E0CDAFFF771FF0023A06DA38148
:1051300000F0ABFBFFF770FF0024204603B0F0BD8A
:10514000636EDB0705D4A389980502D4A06D00F037
:105150009DFB0F4B63620F4BA3622DB20E4BE362BC
:10516000E9050E4BE781A5812462236305D502235F
:1051700000222146304600F02DF8636EDA07DCD4B9
:10518000A3899B05D9D4A06D00F081FBD5E700BFB2
:1051900011540008335400086B5400088F54000861
:1051A000024B0A4601461868FFF7A6BF58000020C8
:1051B0000EB403B5014603AB054853F8042B006851
:1051C000019300F007FE02B05DF804EB03B07047F6
:1051D0005800002000F02CBA2DE9F8430746884615
:1051E00014460026D4E90195B9F1010905D52468D2
:1051F000002CF7D13046BDE8F883AB89012B07D9E5
:10520000B5F90E30013303D029463846C04706436E
:105210006835E9E72DE9F047089C8A46904602FB8D
:1052200003F9064618B1036A0BB9FFF74DFF636E29
:10523000DD0705D4A389980502D4A06D00F026FBF4
:10524000A389190716D52369A3B100254D451FD0A1
:10525000A7681AF80510013F002FA76004DAA369B8
:105260009F420FDB0A290DD023685A1C2260197057
:105270000135EBE72146304600F084F90028E4D000
:10528000002505E02246304600F03EF90130EFD11E
:10529000636EDA0705D4A3899B0502D4A06D00F0E4
:1052A000F6FAB5FBF8F0BDE8F087000007B500930B
:1052B00013460A46014603480068FFF7ABFF03B0F8
:1052C0005DF804FB580000200FB407B5064904AB95
:1052D000086853F8042B8168019300F07BFD03B04C
:1052E0005DF804EB04B0704758000020036A70B505
:1052F000846805460E460BB9FFF7E6FE636EDB07D2
:1053000005D4A389980502D4A06D00F0BFFAA38943
:10531000190702D52369002B35D12146284600F014
:1053200031F980B34FF0FF35636EDA0705D4A389F6
:105330009B0502D4A06D00F0AAFA284670BD002B90
:1053400004DAA2699A4217DC0A2915D023685A1C8C
:1053500022601970A36816F8011F013BA3600029A1
:10536000EDD1002B11DA22460A21284600F0CCF8B4
:105370000130D7D00A25D7E72246284600F0C4F8E6
:105380000130E7D1CEE7013EE4E723685A1C2260F2
:105390000A221A70EEE70000024B01461868FFF778
:1053A000A5BF00BF580000200CB430B5174B0C1E31
:1053B0001D689DB008DA8B232B604FF0FF301DB0C5
:1053C000BDE8304002B070474FF40273ADF81430BE
:1053D00014BF04F1FF332346049307934FF6FF7382
:1053E00002900690ADF81630209A21AB02A928460B
:1053F000019300F0C9FB431CBCBF8B232B60002C26
:10540000DDD0029B00221A70D9E700BF58000020AF
:1054100010B50C46B1F90E1000F00CFA0028ABBF25
:10542000636DA3891B1823F48053ACBF6365A3810C
:1054300010BD2DE9F0411F468B89DB0505460C4662
:10544000164605D5B1F90E100223002200F0CEF960
:10545000A389B4F90E1023F48053A38132463B464E
:105460002846BDE8F04100F0F7B910B50C46B1F997
:105470000E1000F0BBF9431CA38915BF606523F42F
:10548000805343F48053A38118BFA38110BDB1F9A9
:105490000E1000F089B930B51446002C9BB00546BB
:1054A0001A4605DA8B2303604FF0FF301BB030BD86
:1054B0004FF40273ADF80C3014BF04F1FF332346F0
:1054C000029305934FF6FF7300910491ADF80E30EF
:1054D00069461E9B00F058FB431CBCBF8B232B600E
:1054E000002CE3D0009B00221A70DFE707B5009381
:1054F00013460A46014603480068FFF7CCFF03B095
:105500005DF804FB58000020F8B50E461446054629
:1055100018B1036A0BB9FFF7D7FDA369A360A3898C
:105520001A0701D5236943B92146284600F02AF815
:1055300018B14FF0FF373846F8BD23682269981A32
:105540006369F6B28342374605DC21462846FFF7F9
:10555000A1FC0028EDD1A368013BA36023685A1C7D
:1055600022601E706269431C9A4204D0A389DB0743
:10557000E1D50A2EDFD121462846FFF78BFC002813
:10558000D9D0D6E738B5294B054618680C4618B16E
:10559000036A0BB9FFF798FDB4F90C30190722D450
:1055A000DA0607D409222A6043F04003A3814FF0B2
:1055B000FF3033E0580712D5616B41B104F1440369
:1055C000994202D0284600F083F900236363A3893F
:1055D00023F02403A3810023636023692360A3894C
:1055E00043F00803A38123694BB9A38903F4207313
:1055F000B3F5007F03D02146284600F0EBFEB4F956
:105600000C3013F001020AD00022A26062695242FB
:10561000A261226942B913F08000C5D138BD990753
:1056200058BF6269A260F4E70020F7E75800002045
:105630002DE9F8430C4690461E46054618B1036A0C
:105640000BB9FFF741FD636ED90705D4A3899A050D
:1056500002D4A06D00F01AF9A38903F48473B3F5A2
:10566000847F03D121462846FFF714FCD4F82C9000
:10567000B9F1000F02D11D232B6058E0012E3AD062
:1056800036F0020362D123691BB92146284600F097
:10569000A1FE21462846FFF7FDFB0746002846D11C
:1056A000216A334642462846C84701303FD0616BE5
:1056B00041B104F14403994202D0284600F008F9B0
:1056C0000023636323692360A389002123F4026319
:1056D000A3810822616004F15C0000F040F8636E71
:1056E000DA0705D4A3899B0502D4A06D00F0CFF89A
:1056F0003846BDE8F88321462846FFF7CBFBA28950
:1057000012F480520DD0606DB4F90C305F0714D5DF
:105710006368C01A636B0BB1236CC01A8044002607
:10572000B1E73346216A2846C847431CECD1636E73
:10573000D8070DD54FF0FF37DAE71E07EED52368FF
:10574000002BEBD022699B1A1844E7E7162393E756
:10575000A3899905EED4A06D00F099F8EAE7024418
:105760000346934200D1704703F8011BF9E700009C
:10577000DFB50C4B4FF0FF364FF0FF37694604465C
:1057800000221868CDE9006700F01EF80028B8BFB5
:10579000CDE90067DDE900010CB1C4E9000104B006
:1057A000D0BD00BF5800002038B5064D0023044688
:1057B00008462B60FBF788FE431C02D12B6803B11F
:1057C000236038BDE001002038B5074D00230446B2
:1057D000084611462B60FBF74AFF431C02D12B6899
:1057E00003B1236038BD00BFE001002038B5074D8C
:1057F00004460846114600222A601A46FBF71EFEA0
:10580000431C02D12B6803B1236038BDE0010020A6
:1058100038B5074D04460846114600222A601A464C
:10582000FBF71CFF431C02D12B6803B1236038BD7A
:10583000E001002038B5074D044608461146002215
:105840002A601A46FBF794FD431C02D12B6803B172
:10585000236038BDE001002038B5074D04460846F6
:10586000114600222A601A46FBF7FCFD431C02D1B8
:105870002B6803B1236038BDE0010020014B18689C
:10588000704700BF5800002070477047704770474E
:1058900010F8012B11F8013B012A28BF9A42F7D0DA
:1058A000D01A70470A44914200F1FF3300D170478B
:1058B00010B511F8014B03F8014F9142F9D110BD19
:1058C000034613F8012B002AFBD1181A0138704740
:1058D00038B50546002941D051F8043C0C1F002B77
:1058E000B8BFE41800F0E8F81D4A136833B96360E4
:1058F00014602846BDE8384000F0E4B8A34208D957
:10590000206821188B4201BF19685B680918216063
:10591000EDE71A465B680BB1A342FAD9116850183B
:10592000A0420BD120680144501883421160E0D19D
:1059300018685B68536008441060DAE702D90C23EA
:105940002B60D6E7206821188B4204BF19685B687A
:10595000636004BF091821605460CAE738BD00BF06
:1059600014320120024B0146186800F025B800BF30
:105970005800002070B50F4E0C463168054611B92D
:1059800000F0A0FD30602146284600F09BFD431C3E
:1059900003D14FF0FF34204670BDC41C24F0030433
:1059A000A042F8D0211A284600F08CFD0130F2D137
:1059B000EFE700BF103201202DE9F843CD1C25F0A0
:1059C000030508350C2D38BF0C25002D064601DBDC
:1059D000A94204D90C2333600020BDE8F883DFF826
:1059E000D48000F069F8D8F800301C4644BB294642
:1059F0003046FFF7BFFF431C044658D1D8F800409B
:105A00002746002F43D1002C4BD02368394630461F
:105A100004EB030900F056FD814542D121686D1A5F
:105A200029463046FFF7A6FF01303AD023682B44C1
:105A30002360D8F800305A6862BBC8F800700FE0E5
:105A40002268521B20D40B2A17D96119A342256062
:105A500018BF5960636808BFC8F8001062514B60F6
:105A6000304600F02FF804F10B00231D20F0070052
:105A7000C21A1CBF1B1AA350AFE76268A3420CBF37
:105A8000C8F800205A60EBE723466468AEE73C465E
:105A90007F68B6E71A465B68A342FBD100235360D8
:105AA000DEE70C233360304600F00CF894E7056025
:105AB000D6E700BF143201200148FFF7E7BE00BF60
:105AC0000C3201200148FFF7E2BE00BF0C3201207A
